:1000000000308A003F280000FF00030E8301A1009A
:100010000A08A0008A010408A2007708A300780853
:10002000A4007908A5007A08A600831383128C30F7
:100030008400001C1D280C182E2822088400230888
:10004000F7002408F8002508F9002608FA0020081F
:100050008A00210E8300FF0E7F0E09008A110A120A
:100060003128831606100130831286068E010B306C
:100070008F00DC308E000C108A110A121D28030834
:100080001F39830083161F149F141F159F110730FB
:100090009C008313B5308312900083160C14C0307B
:1000A00083128B048E010B308F00DC308E008316A0
:0A00B0000610831206145B2863009B
:02400E007A3FF7
:00000001FF
;PIC16F877A
;CRC=F99A  CREATED="21-jun-20 20:14"
