:1000000000308A0073280000FF00030E8301A10066
:100010000A08A0008A010408A2007708A300780853
:10002000A4007908A5007A08A600831383120B1E8A
:100030001B288B182C28220884002308F70024088A
:10004000F8002508F9002608FA0020088A00210E89
:100050008300FF0E7F0E09008A110A122F28A70ABB
:10006000270B3B288316861083128614831686126C
:10007000831286126F282708023C031D4828831626
:1000800006118312061583168610831286106F28B8
:100090002708033C031D55288316861183128615F5
:1000A00083160611831206116F282708043C031DCE
:1000B000622883160612831206168316861183128F
:1000C00086116F282708053C031D6F2883168612AA
:1000D000831286168316061283120612A7018B104E
:1000E0008A110A121B2803081F39830083161F1464
:1000F0009F141F159F1107309C00831381138312D7
:100100000B1683160113C03083128B0486286300FC
:02400E00723FFF
:00000001FF
;PIC16F877A
;CRC=9F08  CREATED="19-mar.-24 16:17"
