:1000000000308A003C280000FF00030E8301A1009D
:100010000A08A0008A010408A2007708A300780853
:10002000A4007908A5007A08A600831383120B1E8A
:100030001B288B182C28220884002308F70024088A
:10004000F8002508F9002608FA0020088A00210E89
:100050008300FF0E7F0E09008A110A122F288316D3
:1000600086108312861083160611831206152F2818
:100070008B108A110A121B2803081F39830083166C
:100080001F149F141F159F118313811383120B16C6
:1000900083160113C03083128B048316061183125A
:0E00A000061183168610831286145128630001
:02400E00713F00
:00000001FF
;PIC16F877
;CRC=F8E5  CREATED="18-mar.-24 18:53"
