:1000000004308A00C52C00000A108A100A118207E9
:1000100028340C34013406340C00D02B4D1DA012B2
:1000200075100000D037F2316537F430EA323A10FB
:10003000A53AA51220002A30840083130008031972
:100040002E280630F800F701F70B2428F80B232898
:100050007B30F700F70B2A28800B21280800311885
:100060003328081234280816831608128312B11890
:100070003B2888123C28881683168812831231196F
:100080004328081344280817831608138312B1194C
:100090004B2888134C288817831688130000881172
:1000A000831288150230F700F70B542857280000F8
:1000B0008316881183128811080083160811831291
:1000C00008116330F700F70B63286628AE080319A0
:1000D0006E288316081183120815722883160811DA
:1000E00083120811000083168811831288112F0EC5
:1000F000B0000F30B0053008B1002F202F080F39A5
:10010000B000B1002F2008008316081183120811D7
:1001100083168811831288110F30AA001B20A501B5
:100120002508023C031C9C280330B1002F20053019
:10013000AA001B20A50A90280230B1002F20A5019B
:100140002508033C031CB02825080420A600AE01A6
:100150002608AF005D200530AA001B20A50AA028B4
:100160008A110A12D42C8E30F7002608F8002508D0
:10017000F900FA01F808031DC7287908F800F90109
:100180000830F702F808031DC728F701CF2803102D
:10019000F81BCE28F90DF80DF703C728F81308004F
:1001A00080308318C606CB01CC014208CA0046083D
:1001B000CA0641080319C029C900F70045080319F8
:1001C000C929C90203196529031C23294608CF0040
:1001D000CF174708CE004808CD00CC010310CF0C44
:1001E000CE0CCD0CCC0CC90BED28CA1FFA284B1431
:1001F000DD294B1049104B16443084008313F2293B
:100200004B12CA1B0D29491C1829CF0CCE0CCD0C42
:10021000CC0CF70A0319D8291829CF1B1B29031066
:10022000CC0DCD0DCE0DCF0DF7030319D8290D2917
:100230004B1785294B134208CA00CA1F2129CF1723
:10024000D129CF13D1294508C900F7004108C902B7
:100250004208CF00CF174308CE004408CD00CC01A0
:100260000310CF0CCE0CCD0CCC0CC90B2F29CA1F00
:100270003C29CB14DD29CB104910CB164830840023
:100280008313F229CB12CA1B4F29491C5A29CF0CC0
:10029000CE0CCD0CCC0CF70A0319D8295A29CF1B48
:1002A0005D290310CC0DCD0DCE0DCF0DF703031935
:1002B000D8294F29CB178529CB134608CA00CA1F56
:1002C0006329CF17D129CF13D1294608CF00CF17E3
:1002D0004708CE004808CD00CA1F7229CF134B151E
:1002E000DD294B11CC014910443084008313F229DD
:1002F000CA1B9B294208CA00491C8529CF0CCE0C79
:10030000CD0CCC0CF70A0319D829CC1F9629CD0A9D
:10031000031D9629CE0A031D9629CF0A031D96298F
:10032000CF0CCE0CCD0CF70A0319D8294B1B1A2978
:10033000CB1B5C29BA298030CF06CF1FA329DD292A
:100340004608CA00B0294208CA00CF08031DB029D8
:10035000CE08031DB029CD08031DB029F701D1290E
:10036000CF1BBA290310CC0DCD0DCE0DCF0DF70B41
:10037000B029D829CA1FBE29CF17D129CF13D12917
:100380004508F7004608CF004708CE004808CD00D2
:10039000D1294108F7004208CF004308CE004408A5
:1003A000CD004F08F8004E08F9004D08FA00102A59
:1003B000F701F801F901FA01102ACC01CD09CE09A3
:1003C000CF09CC09CC0A031DEB29CD0A031DEB296B
:1003D000CE0A0319CF0A4B18F928CB183B294B1921
:1003E0007129A0290008CD07031CFC29CE0A031D92
:1003F000FC29CF0A0319491484030008CE07031C03
:10040000042ACF0A0319491484030008801F803A84
:10041000CF07031849144B1A0029CB1A422978290F
:10042000080083142C08C4002B08C3002A08C2004B
:100430002908C1003008C8002F08C7002E08C600D0
:100440002D08C500D0207A08C0007908BF007808C0
:10045000BE007708BD0083143C08C4003B08C300FD
:100460003A08C2003908C1003808C8003708C70078
:100470003608C6003508C500D0204008C4003F0833
:10048000C3003E08C2003D08C1007A08C8007908D0
:10049000C7007808C6007708C50041080319BD2ABF
:1004A000C90045080319BD2AC90703185E2A7F3011
:1004B000C902031CBD2A0319BD2A622A8130C9075B
:1004C0000318BD2A4908F700F801F901FA014208AA
:1004D000CD00CD174308CC004408CB001830C9002C
:1004E000CA014B1C8B2A4808FA07031C7D2AF90A0B
:1004F000031D7D2AF80A0319CA174708F907031CC8
:10050000842AF80A0319CA174608C300C317430808
:10051000F8070318CA17CA0DF80CF90CFA0CCD0C21
:10052000CC0CCB0C0310C90B702A0130F707031851
:10053000BD2AF81BA22ACD0DFA0DF90DF80DF7030F
:100540000319BD2ACD1FB32AFA0A031DB32AF90ADB
:10055000031DB32AF80A031DB32AF80CF90CFA0C90
:10056000F70A0319BD2A4208CA004608CA06CA1F6C
:10057000BB2AF817C12AF813C12AF701F801F901BB
:10058000FA017A08C0007908BF007808BE00770831
:10059000BD0083143408C4003308C3003208C2000D
:1005A0003108C1003008C8002F08C7002E08C60057
:1005B0002D08C500D0204008C4003F08C3003E08F5
:1005C000C2003D08C1007A08C8007908C700780851
:1005D000C6007708C50041080319B02BCD004508B7
:1005E0000319B02BCD02031CFA2A7F30CD07031864
:1005F000B02B002B8130CD02031CB02B0319B02B84
:100600004D08F700F801F901FA01CC014208CB00CE
:10061000CB174308CA004408C9001930CD00480868
:10062000C9020318232B0130CA020318232BCB0263
:100630000318232BCC020318232BCC0ACB0ACA0A9B
:100640004808C907552B4708CA0203183E2B01303A
:10065000CB0203183E2BCC0203183E2BCC0ACB0A4C
:100660004708CA074808C907031C552BCA0A031DB7
:10067000552BCB0A031D552BCC0A552B4608803829
:10068000CB020318542B0130CC020318542BCC0A94
:1006900046088038CB074708CA07031C322BCB0A11
:1006A000031D322BCC0A322B7A14CD0B582B632B23
:1006B0000310C90DCA0DCB0DCC0D0310FA0DF90DA9
:1006C000F80DCE0D0F2B4E1C6B2B0310F80CF90CF4
:1006D000FA0CCE0C6E2BF7030319B02BCE1B972B05
:1006E0000310C90DCA0DCB0DCC0D4808C902031863
:1006F000832B0130CA020318832BCB020318832BF0
:10070000CC02031CA62B4708CA0203188E2B01300B
:10071000CB0203188E2BCC02031CA62B4608803874
:10072000CB020318972B0130CC02031CA62BFA0A2C
:10073000031DA62BF90A031DA62BF80A031DA62BE1
:10074000F70A0319B02BF80CF90CFA0C4208CD008B
:100750004608CD06CD1FAE2BF817B42BF813B42BDB
:10076000F701F801F901FA017A08C0007908BF0021
:100770007808BE007708BD0083107A08C4007908A5
:10078000C3007808C2007708C1003808C8003708DD
:10079000C7003608C6003508C500D02008008E30D6
:1007A000F7002508F7022608F9002708F800F917CE
:1007B000F7080319E62B0310F908031DE22BF808CC
:1007C0000319E62BF90CF80CF70BDB2BA61FED2B0E
:1007D000F809F909F80A0319F90A08002B0BF12B9B
:1007E000F42B4030AC00F52BAC0101302A02AC07F1
:1007F0002C088038AD00AE012D08AF005D20080048
:1008000029080C3A03190B2C063A0319132C023A47
:100810000319192C1E2CAE010130AF005D200230EF
:10082000AA001B20232C0130AA000230AB00EE23CB
:10083000232CAE011030AF005D20232C0130AE0020
:100840002908AF005D2008000B08A6008B13831653
:1008500003178C170C140000000083120313A61B4F
:100860008B1703185B2C03170C087F390313A600A2
:1008700003170D080313A70003170F080313A8009D
:100880002608A9000024270803178D000313280851
:1008900003178F0003130B08A9008B13831603178C
:1008A0008C170C140000000083120313A91B8B1774
:1008B000A50B5B2C7A2C03170C0D0E0D7F3903133F
:1008C000A60003170D080313A70003170F0803134F
:1008D000A8002608A9000024270803178D00031389
:1008E000280803178F008D0A03198F0A03100313BA
:1008F000A50B242C08002808F80127020318832CD4
:100900002708F7008F2CF7010830A900A70DF70D75
:10091000280877020318F700F80DA90B862C0800A9
:1009200078082508A7006430A8007B247708A50074
:1009300078083030031DA32CA61CAA2CA619AA2CBB
:10094000261A2030A62CA61126122614F80778089D
:10095000A90000242508A7000A30A8007B247708F6
:10096000A50078083030031DBB2CA619BF2C261C0F
:10097000BF2C261A2030F8077808A9000024303050
:10098000A5072508A9000024080003081F398300D3
:10099000FF30A40083161F149F141F159F110730EA
:1009A0009C008313831284280030F80006389200DC
:1009B000FF308316920083122411240883168700C7
:1009C000831207110C309700A410240883168700A7
:1009D000831287100C309D0083161F109F141F1563
:1009E0009F151F1383121F179F1783169F178312BC
:1009F0001F1495019B010030F8001F08C7397804C7
:100A00009F000230F700F70B032D062D00001F1585
:100A10001F19082D83161E088312A0001E08A100AE
:100A20002108A6002008A500B3207A08A8007908AC
:100A3000A7007808A6007708A5007A08AC00790816
:100A4000AB007808AA007708A900B001AF01AE0199
:100A5000AD01B401C030B3007F30B2008830B100C6
:100A6000B801B701B601B501BC01BB017F30BA00C6
:100A70008630B90011227A08A8007908A700780802
:100A8000A6007708A500CF237808A200A6012208B7
:100A9000A500B3207A08A8007908A7007808A60066
:100AA0007708A5007A08AC007908AB007808AA009E
:100AB0007708A900B001AF01AE01AD01B401B301E7
:100AC0007F30B2008630B100B801B701B601B50180
:100AD000BC01BB014830BA008530B90011227A0848
:100AE000A8007908A7007808A6007708A500CF23FA
:100AF0007808A3002208950022089B000130AA0074
:100B0000AB00EE230D3003178D0000308F00031073
:100B100005300313A50024242208A5001B30A600DD
:100B200090242030A90000240130AA000230AB003C
:100B3000EE23123003178D0000308F0003100C30AD
:100B40000313A50024242308A5001B30A60090242D
:100B50002530A90000242030A90000243230AA004A
:060B60001B20FB2C6300CA
:02400E007A3FF7
:00000001FF
;PIC16F877A
;CRC=7639  CREATED="12-jul-20 12:37"
