:1000000003308A00452B00008E30F7002508F800E9
:100010002408F900FA01F808031D18287908F800E7
:10002000F9010830F702F808031D1828F701202805
:100030000310F81B1F28F90DF80DF7031828F81303
:100040008A110A128B2B80308318C506CA01CB0196
:100050004108C9004508C906400803191329C8000A
:10006000F700440803191C29C8020319B828031C07
:1000700076284508CE00CE174608CD004708CC00AC
:10008000CB010310CE0CCD0CCC0CCB0CC80B4028F4
:10009000C91F4D284A1430294A1048104A164330C7
:1000A0008400831345294A12C91B6028481C6B2809
:1000B000CE0CCD0CCC0CCB0CF70A03192B296B28DA
:1000C000CE1B6E280310CB0DCC0DCD0DCE0DF7033E
:1000D00003192B2960284A17D8284A134108C90058
:1000E000C91F7428CE172429CE1324294408C80018
:1000F000F7004008C8024108CE00CE174208CD00E4
:100100004308CC00CB010310CE0CCD0CCC0CCB0C97
:10011000C80B8228C91F8F28CA143029CA1048105A
:10012000CA164730840083134529CA12C91BA22866
:10013000481CAD28CE0CCD0CCC0CCB0CF70A031907
:100140002B29AD28CE1BB0280310CB0DCC0DCD0D27
:10015000CE0DF70303192B29A228CA17D828CA13D2
:100160004508C900C91FB628CE172429CE13242953
:100170004508CE00CE174608CD004708CC00C91F61
:10018000C528CE134A1530294A11CB0148104330F7
:10019000840083134529C91BEE284108C900481C67
:1001A000D828CE0CCD0CCC0CCB0CF70A03192B297C
:1001B000CB1FE928CC0A031DE928CD0A031DE92835
:1001C000CE0A031DE928CE0CCD0CCC0CF70A03197E
:1001D0002B294A1B6D28CA1BAF280D298030CE065B
:1001E000CE1FF62830294508C90003294108C90057
:1001F000CE08031D0329CD08031D0329CC08031DC8
:100200000329F7012429CE1B0D290310CB0DCC0D9A
:10021000CD0DCE0DF70B03292B29C91F1129CE17A0
:100220002429CE1324294408F7004508CE004608A7
:10023000CD004708CC0024294008F7004108CE0033
:100240004208CD004308CC004E08F8004D08F900E4
:100250004C08FA006329F701F801F901FA01632952
:10026000CB01CC09CD09CE09CB09CB0A031D3E2910
:10027000CC0A031D3E29CD0A0319CE0A4A184C2880
:10028000CA188E284A19C428F3280008CC07031C72
:100290004F29CD0A031D4F29CE0A031948148403A0
:1002A0000008CD07031C5729CE0A031948148403FC
:1002B0000008801F803ACE07031848144A1A5328B2
:1002C000CA1A9528CB28080083142B08C3002A08D3
:1002D000C2002908C1002808C0002F08C7002E0846
:1002E000C6002D08C5002C08C40023207A08BF00D2
:1002F0007908BE007808BD007708BC0083143B086D
:10030000C3003A08C2003908C1003808C0003708E5
:10031000C7003608C6003508C5003408C4002320CD
:100320003F08C3003E08C2003D08C1003C08C000B1
:100330007A08C7007908C6007808C5007708C400A5
:1003400040080319102AC80044080319102AC807D6
:100350000318B1297F30C802031C102A0319102A80
:10036000B5298130C8070318102A4808F700F8019A
:10037000F901FA014108CC00CC174208CB00430830
:10038000CA001830C800C9014A1CDE294708FA070C
:10039000031CD029F90A031DD029F80A0319C9172B
:1003A0004608F907031CD729F80A0319C917450895
:1003B000C200C2174208F8070318C917C90DF80C84
:1003C000F90CFA0CCC0CCB0CCA0C0310C80BC329CB
:1003D0000130F7070318102AF81BF529CC0DFA0D88
:1003E000F90DF80DF7030319102ACC1F062AFA0A93
:1003F000031D062AF90A031D062AF80A031D062A08
:10040000F80CF90CFA0CF70A0319102A4108C90074
:100410004508C906C91F0E2AF817142AF813142A0A
:10042000F701F801F901FA017A08BF007908BE0066
:100430007808BD007708BC0083143308C300320875
:10044000C2003108C1003008C0002F08C7002E08C4
:10045000C6002D08C5002C08C40023203F08C30097
:100460003E08C2003D08C1003C08C0007A08C70031
:100470007908C6007808C5007708C4004008031949
:10048000032BCC0044080319032BCC02031C4D2A78
:100490007F30CC070318032B532A8130CC02031C76
:1004A000032B0319032B4C08F700F801F901FA019B
:1004B000CB014108CA00CA174208C9004308C80056
:1004C0001930CC004708C8020318762A0130C90247
:1004D0000318762ACA020318762ACB020318762A52
:1004E000CB0ACA0AC90A4708C807A82A4608C90287
:1004F0000318912A0130CA020318912ACB0203186B
:10050000912ACB0ACA0A4608C9074708C807031C2C
:10051000A82AC90A031DA82ACA0A031DA82ACB0AA9
:10052000A82A45088038CA020318A72A0130CB023E
:100530000318A72ACB0A45088038CA074608C90706
:10054000031C852ACA0A031D852ACB0A852A7A1428
:10055000CC0BAB2AB62A0310C80DC90DCA0DCB0DA2
:100560000310FA0DF90DF80DCD0D622A4D1CBE2AAF
:100570000310F80CF90CFA0CCD0CC12AF70303197F
:10058000032BCD1BEA2A0310C80DC90DCA0DCB0DD4
:100590004708C8020318D62A0130C9020318D62A10
:1005A000CA020318D62ACB02031CF92A4608C9023C
:1005B0000318E12A0130CA020318E12ACB02031C06
:1005C000F92A45088038CA020318EA2A0130CB020A
:1005D000031CF92AFA0A031DF92AF90A031DF92A4C
:1005E000F80A031DF92AF70A0319032BF80CF90C72
:1005F000FA0C4108CC004508CC06CC1F012BF8179B
:10060000072BF813072BF701F801F901FA017A0813
:10061000BF007908BE007808BD007708BC008310D1
:100620007A08C3007908C2007808C1007708C000C2
:100630003708C7003608C6003508C5003408C400AE
:1006400023208A110A12B12B8E30F7002408F702FA
:100650002508F9002608F800F917F70803193B2BBD
:100660000310F908031D372BF80803193B2BF90C6D
:10067000F80CF70B302BA51F422BF809F909F80AE3
:100680000319F90A8A110A12BA2B03081F398300C9
:10069000FF30A30083161F149F141F159F110730EE
:1006A0009C0083130030F800063883129200FF305C
:1006B0008316920083122311230883168700831266
:1006C00007110C30970083161F109F141F159F15DC
:1006D0001F1383121F179F1783169F1783121F1450
:1006E00095010030F8001F08C73978049F000230D8
:1006F000F700F70B792B7C2B00001F151F197E2BA1
:1007000083161E088312A0001E08A1002108A50060
:100710002008A40004287A08A7007908A600780811
:10072000A5007708A4007A08AB007908AA00780829
:10073000A9007708A800AF01AE01AD01AC01B3017B
:10074000C030B2007F30B1008830B000B701B601D0
:10075000B501B401BB01BA017F30B9008630B800E1
:1007600064297A08A7007908A6007808A500770808
:10077000A400242B7808A20022089500712B6300A6
:02400E007A3FF7
:00000001FF
;PIC16F877A
;CRC=8AED  CREATED="07-jul-20 23:34"
