:1000000005308A004D2D0000FF00030E8301A10082
:100010000A08A0008A010408A2007708A300780853
:10002000A4007908A5007A08A60003170D08031399
:10003000A70003170F080313A80003170C080313E6
:10004000A90003170E080313AA00831383120B1EC3
:100050002B288B1852288C308400001C31280C1857
:100060005528220884002308F7002408F8002508F2
:10007000F9002608FA00270803178D000313280843
:1000800003178F000313290803178C0003132A0892
:1000900003178E00031320088A00210E8300FF0E31
:1000A0007F0E09008A110A1254298A110A128C2B18
:1000B0008316081088100811831288100F308316D9
:1000C0000805F038880083120815000008140000A5
:1000D0000808F700080E0F39F8007808E00008104B
:1000E000000008140808F700080E0F39F800780817
:1000F000DF0008100F308316080588008312600E99
:10010000F700F030F70577085F04F8007808DF00A3
:10011000DF1B5E285D1C88105D1888140000081124
:10012000000008105E0EDF000F30DF055F08E00002
:10013000600EF039F7000F300805770488000000E2
:100140000814000008105E080F39DF005F08E000A7
:10015000600EF039F7000F300805770488000000C2
:1001600008140000081008005A0BB728BA284030BD
:10017000DB00BB28DB0101305902DB075B0880385C
:10018000DC00DD015C08DE00582008005808073A52
:100190000319D4280B3A0319D928063A0319ED2874
:1001A000023A0319F328F8280130D900DA00B42004
:1001B000FD28DD010130DE0058200230D900593021
:1001C0008400831300080319EC28A530F700F70B0F
:1001D000E7280000800BE528FD280130D900023017
:1001E000DA00B420FD28DD011030DE005820FD28A3
:1001F0000130DD005808DE00582008000B08CB0055
:100200008B13831603178C170C1400000000831245
:100210000313CB1B8B1703170C087F3903195229C3
:100220000313CB0003170D080313CC0003170F08AB
:100230000313CD004B08D800C6204C0803178D00CF
:1002400003134D0803178F0003130B08CE008B1305
:10025000831603178C170C1400000000831203137D
:10026000CE1B8B1703170C0D0E0D7F390319522966
:100270000313CB0003170D080313CC0003170F085B
:100280000313CD004B08D800C6204C0803178D007F
:1002900003134D0803178F008D0A03198F0A0313E8
:1002A000FE280317031308000130D900DA00B42038
:1002B000813003178D0001308F000313FE200130C1
:1002C000D9000230DA00B420863003178D000130E7
:1002D0008F000313FE208316061183120611831666
:1002E000861183128615B53090008E01E7308F009D
:1002F00096308E0083160C1483128B108A110A120A
:1003000031284C3665376137E4372000D02B4D1D3E
:1003100020182E183010201020102010201020102F
:100320002010201000000B08CC008B13831603173D
:100330008C170C140000000083120313CC1B8B17C6
:100340000318CA2903170C087F390313CC000317BD
:100350000D080313CD0003170F080313CE004C083C
:10036000D800C6204D0803178D0003134E0803174D
:100370008F0003130B08CF008B13831603178C1702
:100380000C140000000083120313CF1B8B17CB0B40
:10039000CA29E92903170C0D0E0D7F390313CC0070
:1003A00003170D080313CD0003170F080313CE0026
:1003B0004C08D800C6204D0803178D0003134E08C3
:1003C00003178F008D0A03198F0A03100313CB0B39
:1003D000932908008318EF29603084008313F70104
:1003E000F801F901FA01E001E101E201E3015F082E
:1003F0005E045D045C0403192D2A2030E400031020
:10040000D80DD90DDA0DDB0DE00DE10DE20DE30D98
:100410005F086302031D162A5E086202031D162A86
:100420005D086102031D162A5C086002031C272A6E
:100430005C08E0025D08031C5D0FE1025E08031C1E
:100440005E0FE2025F08031C5F0FE3020314F70D67
:10045000F80DF90DFA0DE40BFF2960088000840AFD
:1004600061088000840A62088000840A63088000B2
:1004700008000408D0004F08D2000319CB2A4E0808
:10048000DB004D08DA004C08D9004B08D800DF012A
:10049000DE012030DD008230DC0058080319BD2A5F
:1004A000E0005C080319BD2AE00703185E2A7F30CC
:1004B000E002031CBD2A0319BD2A622A8130E0072D
:1004C0000318BD2A6008F700F801F901FA0159087C
:1004D000E400E4175A08E3005B08E2001830E0008B
:1004E000E101621C8B2A5F08FA07031C7D2AF90AC6
:1004F000031D7D2AF80A0319E1175E08F907031C9A
:10050000842AF80A0319E1175D08DA00DA175A0895
:10051000F8070318E117E10DF80CF90CFA0CE40CDC
:10052000E30CE20C0310E00B702A0130F70703180C
:10053000BD2AF81BA22AE40DFA0DF90DF80DF703F8
:100540000319BD2AE41FB32AFA0A031DB32AF90AC4
:10055000031DB32AF80A031DB32AF80CF90CFA0C90
:10056000F70A0319BD2A5908E1005D08E106E11FF9
:10057000BB2AF817C12AF813C12AF701F801F901BB
:10058000FA017A08CE007908CD007808CC00770807
:10059000CB00D20B3F2A4E08DB004D08DA004C0896
:1005A000D9004B08D8005808B63CD800FA015908C1
:1005B000DC00D9170310D90CDA0CDB0CFA0CF90C9F
:1005C000F80CF70CD80BDA2ADC1FF12AF709F80926
:1005D000F909FA09F70A0319F80A0319F90A0319BC
:1005E000FA0A7A08CE007908CD007808CC0077089E
:1005F000CB00CE1F082BD003D016CB09CC09CD09D8
:10060000CE09CB0A0319CC0A0319CD0A0319CE0A65
:100610003B30D7009A30D600CA30D500D4010A301A
:10062000D2004F080319D00A83144B30840083137F
:100630004E08DB004D08DA004C08D9004B08D80002
:100640005708DF005608DE005508DD005408DC00BE
:10065000EA217808F708031D402B4F0A52020319BC
:10066000402B50080319422B0F39520203193A2B21
:100670000318722BD01B722B501B422B20306E2B79
:100680002030D005D01E502BD0124F08031DD003B0
:100690007708D0002D30D800C6205008F700D001D0
:1006A0004F085202031D5E2B7708D0002E30D80071
:1006B000C6205008F7002030D00500303030D01E62
:1006C0006E2BD0124F08031DD0037708D0002D30B9
:1006D000D800C6205008F700D0013030F70777085F
:1006E000D800C62083105708DB005608DA005508EA
:1006F000D9005408D800DF01DE01DD010A30DC003A
:10070000EA217A08D7007908D6007808D50077085A
:10071000D400D20B142B08008E01E7308F009630E6
:100720008E002C08023C031C972BAC0A9C2CAC01BD
:100730001F151F19992B1E08FA0083161E08831215
:10074000CB007A08CC008E30F7004C08F8004B083C
:10075000F900FA01F808031DB72B7908F800F90130
:100760000830F702F808031DB72BF701BF2B031061
:10077000F81BBE2BF90DF80DF703B72BF8137A0809
:10078000B0007908AF007808AE007708AD000130FE
:10079000D900DA00B420A03003178D0004308F0098
:1007A0000313FE200130D9000230DA00B420A53056
:1007B00003178D0004308F00031005300313CB00A6
:1007C0009321893084003008CE002F08CD002E08F8
:1007D000CC002D08CB000230CF0039222030D800C9
:1007E000C620CE01CD017A30CC008830CB00300855
:1007F000D2002F08D1002E08D0002D08CF004C08C1
:10080000D3005008D306D31F0A2C03110310CC1BAE
:1008100003143D2C4C08D3004F08D4004B08D402DD
:100820000319182CD31F3D2C0308013A83003D2CDB
:100830005008D4004C08D4020319242CD31F3D2C9B
:100840000308013A83003D2C5108D4004D08D4021E
:100850000319302CD31F3D2C0308013A83003D2C93
:100860005208D4004E08D40203193C2CD31F3D2C4F
:100870000308013A83003D2C0310031C9C2C8316B3
:1008800086118312861183160611831206159001B4
:100890000130D900DA00B420AA3003178D000430EB
:1008A0008F000313FE200130D9000230DA00B4209B
:1008B000B23003178D0004308F000310053003138E
:1008C000CB009321893084003008CE002F08CD0062
:1008D0002E08CC002D08CB000230CF00392220306A
:1008E000D800C6200430CB00FA30D900593084003B
:1008F000831300080319832CA530F700F70B7E2C17
:100900000000800B7C2CCB0B742C0130D900DA005A
:10091000B420B73003178D0004308F000313FE207E
:100920000130D9000230DA00B420BC3003178D004A
:1009300004308F000313FE200C108A110A12312894
:100940004C3665376137E4372000D02B4D1DA0129F
:10095000661000004C3665376F10201020102010F4
:1009600020102000D02B4D1DA01266100001A026E3
:100970006F3BE9326E326F00D02B4D1D20182E18C0
:100980003010201020102010201020102000A02651
:100990006F3BE9326E326F00D02B4D1DA0126610F6
:1009A00000002830B2000C30B3000130B400063033
:1009B000B5000810881008110F308316080588004C
:1009C0000810881008110F308312D90059308400A4
:1009D000831300080319F32CA530F700F70BEE2C56
:1009E0000000800BEC2C0130B1003108033C031CEB
:1009F000172D0330E000600EF039F7000F300805C6
:100A00007704880000000814000008100530D900A1
:100A100059308400831300080319152DA530F70001
:100A2000F70B102D0000800B0E2DB10AF52C0230B3
:100A3000E000600EF039F7000F30080577048800F9
:100A400000000814000008100530D9005930840057
:100A5000831300080319332DA530F700F70B2E2D53
:100A60000000800B2C2DB1013108033C031C4A2DE2
:100A700032303107840083130008B600AB018B1BB2
:100A8000AB178B13DD013608DE005820AB1B8B172C
:100A9000B10A342D8A110A12592D03081F39830017
:100AA000AC0183161F149F141F159F11831383120B
:100AB000D12C8316811383120B1683160113C030B9
:100AC00083128B0483161F109F101F119F11831216
:100AD0001F179F1783169F1783121F140030F800EB
:100AE0001F08C73978049F00AB018B1BAB178B1312
:100AF0000130D900DA00B420AB1B8B17C7300317C5
:100B00008D0004308F000313AB018B1BAB178B13CD
:100B1000FE20AB1B8B17AB018B1BAB178B1301306C
:100B2000D9000230DA00B420AB1B8B17CC3003178E
:100B30008D0004308F0003100313AB018B1BAB1728
:100B40008B130530CB009321AB1B8B1789308400AE
:100B5000AB018B1BAB178B133008CE002F08CD00D9
:100B60002E08CC002D08CB000230CF003922AB1B61
:100B70008B17AB018B1BAB178B132030D800C62013
:100B8000AB1B8B17831686118312861183160611F1
:080B900083120615CA2D630053
:02400E00713F00
:00000001FF
;PIC16F877
;CRC=8E05  CREATED="17-mar.-24 21:41"
