:1000000000308A0055280000FF00030E8301A10084
:100010000A08A0008A010408A2007708A300780853
:10002000A4007908A5007A08A600831383128B1E0A
:100030001B280B192C28220884002308F700240809
:10004000F8002508F9002608FA0020088A00210E89
:100050008300FF0E7F0E09008A110A122F28A70ABB
:100060000319A80A2708E83C031D41282808033C77
:10007000031D412883160610013083128606A8014D
:10008000A701FE3081000B118A110A121B282A30A9
:1000900084008313000803195428A530F700F70BD8
:1000A0004F280000800B4D28080003081F398300EB
:1000B000A801A70183161F149F141F159F11073055
:1000C0009C0083130108C0390738810083128B1606
:1000D000C0308B04FE308100831606108312061494
:1000E00083168610831286140430A900FA30AA0001
:1000F0004720A90B762883168610831286100430B9
:10010000A900FA30AA004720A90B812870286300B3
:02400E00723FFF
:00000001FF
;PIC16F877A
;CRC=9311  CREATED="18-mar.-24 19:08"
